:020000040800F2
:100000004804002089020008F1020008F1020008FB
:10001000F1020008F1020008F102000800000000EF
:10002000000000000000000000000000F1020008D5
:10003000F102000800000000F1020008D9050008E4
:10004000F1020008F1020008F1020008F1020008C4
:10005000F1020008F1020008F1020008F1020008B4
:10006000F1020008F1020008F1020008F1020008A4
:10007000F1020008F1020008F1020008F102000894
:10008000F1020008F1020008F1020008F102000884
:10009000F1020008F1020008F1020008F102000874
:1000A000F1020008F1020008F1020008F102000864
:1000B000F1020008F1020008F1020008F102000854
:1000C000F1020008F1020008F1020008F102000844
:1000D000F1020008F1020008F1020008F102000834
:1000E000F1020008F1020008F1020008000000001F
:1000F0000000000000000000000000000000000000
:1001000000000000000000005FF808F180B500AFBB
:10011000154B154A126842F001021A60124A124B3E
:100120005968124B01EA030353600F4A0E4B1B68D8
:1001300023F0847323F4803313600B4B0A4A126854
:1001400022F480221A60084B074A526822F4FE0209
:100150005A60054B4FF41F029A6000F00BF8044BF5
:100160004FF000629A6080BD001002400000FFF86E
:1001700000ED00E080B500AF00F002F880BD00BFE8
:1001800080B483B000AF4FF000037B604FF00003FA
:100190003B603B4B3A4A126842F480321A60384B5B
:1001A0001B6803F400333B607B6803F101037B6051
:1001B0003B68002B03D17B68B3F5A06FEFD1304BC8
:1001C0001B6803F40033002B03D04FF001033B60A6
:1001D00002E04FF000033B603B68012B4BD1294B01
:1001E000284A126842F010021A60264B254A12680B
:1001F00022F003021A60234B224A126842F00202E4
:100200001A601F4B1E4A52685A601D4B1C4A5268A6
:100210005A601B4B1A4A526842F480625A60184B6B
:10022000174A526822F47C125A60154B144A5268DD
:1002300042F4E8125A60124B114A126842F080727E
:100240001A6000BF0E4B1B6803F00073002BF9D03F
:100250000B4B0B4A526822F003025A60084B084AC3
:10026000526842F002025A6000BF054B5B6803F01F
:100270000C03082BF9D107F10C07BD4680BC704771
:10028000001002400020024080B582B000AF134B46
:100290007B60134B3B600BE07B681A683B681A601D
:1002A0003B6803F104033B607B6803F104037B605C
:1002B0003A680C4B9A42EFD30B480C494FF00002BE
:1002C0008842B8BF40F8042BFADBFFF71FFF00F0AD
:1002D0004DFA07F10807BD4680BD00BF4412000873
:1002E0000000002014000020140000204400002022
:1002F00080B400AFFEE700BF80B489B000AF786083
:1003000039604FF00003FB614FF000033B614FF099
:100310000003BB614FF00003FB604FF000037B6103
:100320004FF00003BB603B68DB7803F00F03FB6119
:100330003B68DB7803F01003002B05D03B689B780B
:10034000FA6942EA0303FB613B681B8803F0FF0381
:10035000002B51D07B681B687B614FF00003BB61B1
:1003600044E0BB694FF0010202FA03F3FB603B6813
:100370001B881A46FB6802EA03033B613A69FB6883
:100380009A422FD1BB694FEA8303FB60FB684FF0B1
:100390000F0202FA03F3BB60BB686FEA03037A69DA
:1003A00002EA03037B61FB68FA6902FA03F37A69E4
:1003B00042EA03037B613B68DB78282B07D1BB69EA
:1003C0004FF0010202FA03F27B685A610AE03B68CF
:1003D000DB78482B06D1BB694FF0010202FA03F229
:1003E0007B681A61BB6903F10103BB61BB69072B21
:1003F000B7D97B687A691A603B681B88FF2B56D98E
:100400007B685B687B614FF00003BB6149E0BB69BF
:1004100003F108034FF0010202FA03F3FB603B68AB
:100420001B881A46FB6802EA03033B613A69FB68D2
:100430009A4232D1BB694FEA8303FB60FB684FF0FD
:100440000F0202FA03F3BB60BB686FEA03037A6929
:1004500002EA03037B61FB68FA6902FA03F37A6933
:1004600042EA03037B613B68DB78282B08D1BB6938
:1004700003F108034FF0010202FA03F27B685A61AC
:100480003B68DB78482B08D1BB6903F108034FF0C8
:10049000010202FA03F27B681A61BB6903F10103EE
:1004A000BB61BB69072BB2D97B687A695A6007F1D7
:1004B0002407BD4680BC704780B485B000AF78602B
:1004C0000B467B804FF00003FB737B689A687B8848
:1004D00002EA0303002B03D04FF00103FB7302E099
:1004E0004FF00003FB73FB7B184607F11407BD4672
:1004F00080BC704780B483B000AF78600B467B80CF
:100500007A887B681A6107F10C07BD4680BC70478A
:1005100080B483B000AF78600B467B807A887B68BC
:100520005A6107F10C07BD4680BC704780B483B0A8
:1005300000AF03463960FB7197F90730002B0DDAE5
:100540000E49FB7903F00F03A3F104033A68D2B21A
:100550004FEA0212D2B2CB181A760AE0084997F98C
:1005600007303A68D2B24FEA0212D2B2CB1883F8FF
:10057000002307F10C07BD4680BC704700ED00E08A
:1005800000E100E080B582B000AF78607A686FF07B
:100590007F439A4202D94FF0010316E00D4B7A686F
:1005A00022F07F4202F1FF325A604FF0FF304FF0ED
:1005B0000F01FFF7BBFF074B4FF000029A60054B9E
:1005C0004FF007021A604FF00003184607F10807C2
:1005D000BD4680BD10E000E080B400AF064B1B6854
:1005E000002B05D0044B1B6803F1FF32024B1A604D
:1005F000BD4680BC704700BF1400002080B483B0AB
:1006000000AF7860064B7A681A6000BF044B1B6825
:10061000002BFBD107F10C07BD4680BC704700BF23
:100620001400002080B500AF0C4B4FF01002DA70C0
:100630000B480A49FFF760FE09484FF48051FFF765
:1006400067FF4FF4FA70FFF7D9FF044B4FF0040235
:10065000DA7003480149FFF74FFE80BD40000020DB
:10066000000C014080B500AF4FF00200FFF7C6FF5D
:100670000C4B4FF01002DA700B480A49FFF73CFEB2
:1006800009484FF48051FFF743FF4FF04600FFF752
:10069000B5FF044B4FF00402DA7003480149FFF73D
:1006A0002BFE80BD40000020000C014080B500AF53
:1006B0004FF00200FFF7A2FF0E4B4FF01002DA706E
:1006C0000D480C49FFF718FE0B484FF48051FFF717
:1006D0001FFF4FF00A00FFF791FF064B4FF0040297
:1006E000DA7005480349FFF707FE4FF03C00FFF7BB
:1006F00085FF80BD40000020000C014080B500AFA8
:100700004FF00200FFF77AFF154B4FF01002DA703E
:1007100014481349FFF7F0FD12484FF48051FFF7DA
:10072000F7FE4FF00300FFF769FF0D4B4FF0040297
:10073000DA700C480A49FFF7DFFD4FF00500FFF7BC
:100740005DFF08484FF48051FFF7B6FE03461A4696
:10075000054B1A704FF03C00FFF750FF80BD00BF03
:1007600040000020000C01401800002080B500AFC0
:100770009C4B1A689C4BA3FB02134FEA9343184609
:10078000FFF700FF4FF008004FF0010100F038FDC7
:10079000964B4FF480521A80944B4FF00402DA705B
:1007A000924B4FF002029A7091489049FFF7A4FDD6
:1007B0009048FFF723FFFFF735FF4FF4FA70FFF77C
:1007C0001DFFFFF74FFFFFF74DFFFFF76FFFFFF72D
:1007D0006DFFFFF747FFFFF745FFFFF767FFFFF7E5
:1007E00065FFFFF73FFFFFF73DFFFFF75FFFFFF7F5
:1007F00039FFFFF737FFFFF735FFFFF757FFFFF729
:1008000031FF7B484FF48051FFF774FE774B4FF078
:100810001002DA7076487549FFF76EFD7648FFF7EB
:10082000EDFEFFF7FFFE4FF0C800FFF7E7FEFFF712
:1008300019FFFFF717FFFFF739FFFFF737FFFFF744
:1008400011FFFFF70FFFFFF731FFFFF72FFFFFF754
:1008500009FFFFF72BFFFFF729FFFFF727FFFFF740
:1008600025FFFFF723FFFFF7FDFEFFF71FFFFFF751
:1008700045FF624B1B78012B0AD1614B4FF00102FF
:100880001A70604B1B8803F101039AB25D4B1A800A
:10089000FFF734FF594B1B78012B0AD15A4B4FF00D
:1008A00001021A70574B1B8803F102039AB2554B91
:1008B0001A80FFF723FF514B1B78012B0AD1534BB2
:1008C0004FF001021A704F4B1B8803F104039AB2D8
:1008D0004C4B1A80FFF712FF484B1B78012B0AD1B3
:1008E0004B4B4FF001021A70464B1B8803F1080373
:1008F0009AB2444B1A80FFF701FF404B1B78012B43
:100900000AD1444B4FF001021A703E4B1B8803F191
:1009100010039AB23B4B1A80FFF7F0FE374B1B785F
:10092000012B0AD13C4B4FF001021A70354B1B884A
:1009300003F120039AB2334B1A80FFF7DFFE2F4BEF
:100940001B78012B0AD1354B4FF001021A702D4B49
:100950001B8803F140039AB22A4B1A80FFF7CEFEA0
:10096000264B1B78012B0AD12D4B4FF001021A7038
:10097000244B1B8803F180039AB2224B1A80FFF7A5
:10098000BDFE1E4B1B78012B0AD1264B4FF00102F6
:100990001A701C4B1B8803F580739AB2194B1A808E
:1009A000FFF7ACFE154B1B78012B0AD11E4B4FF005
:1009B00001021A70134B1B8803F500739AB2114B96
:1009C0001A80FFF79BFE0D4B1B78012B31D1174B83
:1009D0004FF001021A700B4B1B8803F580639AB22B
:1009E000084B25E00000002083DE1B434000002070
:1009F000000C014040420F00B0710B0018000020B5
:100A00002B0000201A0000202C0000202D000020C8
:100A10002E0000202F000020300000203100002098
:100A20003200002033000020340000203500002078
:100A30001A80FFF763FE874B1B78012B0AD1864B88
:100A40004FF001021A70854B1B8803F500639AB2C0
:100A5000824B1A80FFF752FE7E4B1B78012B0AD186
:100A60007F4B4FF001021A707C4B1B8803F58053BB
:100A70009AB27A4B1A80FFF741FE764B1B78012B16
:100A80000AD1784B4FF001021A70744B1B8803F5A2
:100A9000FA639AB2714B1A80FFF730FE6D4B1B78E8
:100AA000012B0AD1704B4FF001021A706B4B1B885F
:100AB00003F57A639AB2694B1A80FFF71FFE654B04
:100AC0001B78012B0AD1694B4FF001021A70634B5E
:100AD0001B8803F5FA539AB2604B1A80FFF70EFE9B
:100AE0005C4B1B78012B06D1614B1B8803F1010382
:100AF0009AB25F4B1A80FFF701FE564B1B78012B11
:100B000006D15B4B1B8803F102039AB2584B1A8043
:100B1000FFF7F4FD4F4B1B78012B06D1544B1B887C
:100B200003F104039AB2524B1A80FFF7E7FD494BD9
:100B30001B78012B06D14E4B1B8803F108039AB298
:100B40004B4B1A80FFF7DAFD424B1B78012B06D185
:100B5000474B1B8803F110039AB2454B1A80FFF7ED
:100B6000CDFD3C4B1B78012B06D1414B1B8803F17B
:100B700020039AB23E4B1A80FFF7C0FD354B1B781D
:100B8000012B06D13A4B1B8803F140039AB2384B34
:100B90001A80FFF7B3FD2F4B1B78012B06D1344B86
:100BA0001B8803F180039AB2314B1A80FFF7A6FD30
:100BB000284B1B78012B06D12E4B1B8803F1010318
:100BC0009AB22C4B1A80FFF799FD224B1B78012B10
:100BD00006D1284B1B8803F102039AB2254B1A80D9
:100BE000FFF78CFD1B4B1B78012B06D1214B1B887B
:100BF00003F104039AB21F4B1A80FFF77FFD154BD8
:100C00001B78012B06D11B4B1B8803F108039AB2FA
:100C1000184B1A80FFF772FD0E4B1B78012B06D183
:100C2000144B1B8803F110039AB2124B1A80FFF782
:100C300065FD084B1B78012B06D10E4B1B8803F179
:100C400020039AB20B4B1A80FFF758FD014B1B781B
:100C500012E000BF18000020360000201A0000201B
:100C60003700002038000020390000203A00002022
:100C70001C0000201E000020012B06D1854B1B8884
:100C800003F140039AB2834B1A80FFF737FD824B82
:100C90001B78012B06D17F4B1B8803F180039AB28E
:100CA0007C4B1A80FFF72AFD7B4B1B78012B06D16A
:100CB0007A4B1B8803F101039AB2784B1A80FFF735
:100CC0001DFD754B1B78012B06D1744B1B8803F15E
:100CD00002039AB2714B1A80FFF710FD6E4B1B781E
:100CE000012B06D16D4B1B8803F104039AB26B4BA9
:100CF0001A80FFF703FD684B1B78012B06D1674B69
:100D00001B8803F108039AB2644B1A80FFF7F6FCC4
:100D1000614B1B78012B06D1604B1B8803F110033C
:100D20009AB25E4B1A80FFF7E9FC5B4B1B78012BF4
:100D300006D15A4B1B8803F120039AB2574B1A80F5
:100D4000FFF7DCFC544B1B78012B06D1534B1B885F
:100D500003F140039AB2514B1A80FFF7CFFC4E4B80
:100D60001B78012B06D14D4B1B8803F180039AB2EF
:100D70004A4B1A80FFF7C2FC474B1B78012B06D168
:100D8000474B1B8803F101039AB2454B1A80FFF7CA
:100D9000B5FC414B1B78012B06D1414B1B8803F15D
:100DA00002039AB23E4B1A80FFF7A8FC3A4B1B781D
:100DB000012B06D13A4B1B8803F104039AB2384B3E
:100DC0001A80FFF79BFC344B1B78012B06D1344B68
:100DD0001B8803F108039AB2314B1A80FFF78EFC8F
:100DE0002D4B1B78012B06D12D4B1B8803F11003D3
:100DF0009AB22B4B1A80FFF781FC274B1B78012BF3
:100E000006D1274B1B8803F120039AB2244B1A808A
:100E1000FFF774FC204B1B78012B06D1204B1B885D
:100E200003F140039AB21E4B1A80FFF767FC1A4B7E
:100E30001B78012B06D11A4B1B8803F180039AB251
:100E4000174B1A80FFF75AFC134B1B78012B06D166
:100E5000144B1B8803F101039AB2124B1A80FFF75F
:100E60004DFC0D4B1B78012B06D10E4B1B8803F15B
:100E700002039AB20B4B1A80FFF740FC064B1B781B
:100E8000012B11D1074B1B8803F104039AB2054BC8
:100E90001A8009E01E000020180000202000002019
:100EA0002200002024000020FFF728FC864B1B783E
:100EB000012B06D1854B1B8803F108039AB2834BA3
:100EC0001A80FFF71BFC804B1B78012B06D17F4B50
:100ED0001B8803F110039AB27C4B1A80FFF70EFCBB
:100EE000794B1B78012B06D1784B1B8803F120032B
:100EF0009AB2764B1A80FFF701FC734B1B78012BDB
:100F000006D1724B1B8803F140039AB26F4B1A80D3
:100F1000FFF7F4FB6C4B1B78012B06D16B4B1B8846
:100F200003F180039AB2694B1A80FFF7E7FB664B27
:100F30001B78012B06D1664B1B8803F101039AB283
:100F4000634B1A80FFF7DAFB5F4B1B78012B06D14E
:100F50005F4B1B8803F102039AB25D4B1A80FFF7C7
:100F6000CDFB594B1B78012B06D1594B1B8803F144
:100F700004039AB2564B1A80FFF7C0FB524B1B7802
:100F8000012B06D1524B1B8803F108039AB2504B38
:100F90001A80FFF7B3FB4C4B1B78012B06D14C4B4F
:100FA0001B8803F110039AB2494B1A80FFF7A6FB86
:100FB000454B1B78012B06D1454B1B8803F12003C1
:100FC0009AB2434B1A80FFF799FB3F4B1B78012BDA
:100FD00006D13F4B1B8803F140039AB23C4B1A8069
:100FE000FFF78CFB384B1B78012B06D1384B1B8845
:100FF00003F180039AB2364B1A80FFF77FFB324B26
:101000001B78012B06D1334B1B8803F101039AB2E5
:10101000304B1A80FFF772FB2B4B1B78012B06D14C
:101020002C4B1B8803F102039AB22A4B1A80FFF75C
:1010300065FB254B1B78012B06D1264B1B8803F142
:1010400004039AB2234B1A80FFF758FB1E4B1B7800
:10105000012B06D11F4B1B8803F108039AB21D4BCD
:101060001A80FFF74BFB184B1B78012B06D1194B4D
:101070001B8803F110039AB2164B1A80FFF73EFB50
:10108000114B1B78012B06D1124B1B8803F1200357
:101090009AB2104B1A80FFF731FB0B4B1B78012BD8
:1010A00006D10C4B1B8803F140039AB2094B1A80FE
:1010B000FFF724FB044B1B78012B0FD1054B1B883A
:1010C00003F180039AB207E01800002024000020FA
:1010D0002600002028000020314B1A80314B4FF0B1
:1010E00000021A80304B4FF000021A802F4B4FF055
:1010F00000021A802E4B4FF000021A802D4B4FF049
:1011000000021A802C4B4FF000021A80244B4FF043
:1011100000021A80294B4FF000021A70284B4FF042
:1011200000021A70274B4FF000021A70264B4FF046
:1011300000021A70254B4FF000021A70244B4FF03A
:1011400000021A70234B4FF000021A70224B4FF02E
:1011500000021A70214B4FF000021A70204B4FF022
:1011600000021A701F4B4FF000021A701E4B4FF016
:1011700000021A701D4B4FF000021A701C4B4FF00A
:1011800000021A701B4B4FF000021A701A4B4FF0FE
:1011900000021A70194B4FF000021A80FFF708BBCB
:1011A000280000201C0000201E000020200000203D
:1011B0002200002024000020260000202B00002018
:1011C0002C0000202D0000202E0000202F000020E9
:1011D00030000020310000203200002033000020C9
:1011E00034000020350000203600002037000020A9
:1011F00038000020390000203A0000201A000020AA
:1012000080B483B000AF78600B46FB70FB78002B96
:1012100007D00B4B0A4A91697A6841EA02029A6147
:1012200008E0074B064A91697A686FEA020201EA10
:1012300002029A6107F10C07BD4680BC704700BFEF
:041240000010024058
:1012440000A24A04000000000000000001020304A0
:041254000607080978
:0400000508000000EF
:00000001FF
